:10000000E00F0020F12200007B58000021230000B7
:100010002123000021230000212300000000000014
:100020000000000000000000000000004D22000061
:100030002123000000000000F921000059580000B1
:10004000B1220000B1220000B1220000B122000064
:10005000B1220000B1220000B1220000B122000054
:10006000B1220000B1220000B1220000B122000044
:10007000B1220000B1220000B1220000B122000034
:10008000B1220000B1220000B1220000B122000024
:10009000B1220000B1220000B1220000B122000014
:1000A000B1220000B1220000B1220000B122000004
:1000B000B1220000B1220000B1220000B1220000F4
:1000C000B1220000B1220000B1220000B1220000E4
:0C00D000B1220000B1220000B1220000AB
:1000DC0053B94AB9002908BF00281CBF4FF0FF31A3
:1000EC004FF0FF3000F06CB9ADF1080C6DE904CEA7
:1000FC0000F006F8DDF804E0DDE9022304B07047F7
:10010C002DE9F047089E0D4604468E46002B40F024
:10011C0082808A42174646D9B2FA82F24AB1C2F1BB
:10012C00200105FA02F320FA01F1974041EA030E8F
:10013C0094404FEA1748230CBEFBF8FCB9B208FBFD
:10014C001CEE43EA0E430CFB01F098420AD9FB1853
:10015C000CF1FF3580F01681984240F21381ACF11E
:10016C00020C3B441B1AA4B2B3FBF8F008FB10338F
:10017C0044EA034400FB01F1A14209D93C1900F106
:10018C00FF3380F00181A14240F2FE8002383C44F2
:10019C00641A40EA0C4000211EB1D4400023C6E989
:1001AC000043BDE8F08702B9FFDEB2FA82F2002A02
:1001BC004FD1CB1B4FEA174E1FFA87F80121B3FB27
:1001CC00FEFC250C0EFB1C3345EA034508FB0CF327
:1001DC00AB4207D97D190CF1FF3002D2AB4200F2D1
:1001EC00E7808446ED1AA3B2B5FBFEF00EFB10556A
:1001FC0043EA054408FB00F8A04507D93C1900F177
:10020C00FF3302D2A04500F2D7801846A4EB0804B5
:10021C0040EA0C40C0E78B4208D9002E00F0AF80BA
:10022C000021C6E900050846BDE8F087B3FA83F162
:10023C0000294BD1AB4202D3824200F2B780841A20
:10024C0065EB030301209E46002EAAD0C6E9004EA2
:10025C00A7E7C2F1200C01FA02F3974020FA0CF048
:10026C004FEA174E21FA0CFC1843BCFBFEF1050CAF
:10027C000EFB11CC1FFA87F845EA0C4501FB08F37D
:10028C00AB4204FA02F409D97D1901F1FF3C80F06C
:10029C008B80AB4240F2888002393D44EB1A85B228
:1002AC00B3FBFEF00EFB103345EA034500FB08F3ED
:1002BC00AB4207D97D1900F1FF3C71D2AB426FD92B
:1002CC0002383D44EB1A40EA014178E7C1F1200CB9
:1002DC008B4022FA0CF71F4320FA0CF405FA01F3B9
:1002EC004FEA174E25FA0CF51C43230CB5FBFEF90F
:1002FC001FFA87F80EFB195543EA054509FB08FA66
:10030C00AA4502FA01F200FA01F308D97D1909F1A4
:10031C00FF3047D2AA4545D9A9F102093D44A5EBC6
:10032C000A05A4B2B5FBFEF00EFB105544EA0544D9
:10033C0000FB08F8A04507D93C1900F1FF352DD278
:10034C00A0452BD902383C4440EA0940A4EB0804F0
:10035C00A0FB02894C45C6464D4619D316D05EB15A
:10036C00B3EB0E0264EB050404FA0CFCCA404CEA35
:10037C000202CC40C6E900240021BDE8F0873146DA
:10038C0030460EE7AC46EDE6184601E74345E6D2AB
:10039C00B8EB020E69EB07050138E0E72846D3E716
:1003AC0060468FE78146BAE7614677E708464BE738
:1003BC00ACF1020C3D4415E702383C4426E700BF83
:1003CC00704700BF2DE9F04F064687B08A461746A6
:1003DC00836804AA5B6898470290002835D1DDE950
:1003EC0004430393039A44F62063A4FB038903FBA1
:1003FC0002994046184A00234946FFF769FE174BFD
:10040C004FF0FF324B4508BF4245834620D3039B38
:10041C00114AA7FB044507FB035520460023294638
:10042C00FFF756FE0D4A4FF0FF31AA4208BFA1421A
:10043C0003460DD3B26802990091146851465A468E
:10044C003046A04707B0BDE8F08F6FF00400F9E725
:10045C006FF02200F6E700BF40420F003F420F0052
:10046C002DE9F047274804F088FC274803F0ECFA04
:10047C008146254803F0E8FA8046234803F0E4FA65
:10048C000746B9F1000F03D0B8F1000F00D058BBEC
:10049C00BDE8F0471D4804F070BC044645F2F05A24
:1004AC00182122464046FFF78DFF014608B1184837
:1004BC0024E0054616212A463846FFF783FF0146FD
:1004CC0008B114481AE04FF40040002105F5FA6514
:1004DC0004F0EEF85545EDD104F5FA64AC42DFD1E9
:1004EC0006F5FA66A64200D1002617213246484688
:1004FC00FFF768FF01460028CFD00748BDE8F0475A
:10050C0004F03BBC206200003B6200004162000032
:10051C0089620000A76200006D6200000B68013365
:10052C000B60014B1B68184700000020014B186042
:10053C00704700BF0000002007B50B4600210246A3
:10054C000191034801A900F057FA03B05DF804FBD0
:10055C002905000030B585B0CDE901010446002520
:10056C0001A90548039500F047FADDE902309842ED
:10057C00B8BF255405B030BD614D00002DE9F84FD2
:10058C00B0F8189019F00808044693460DD00129CC
:10059C000CBF49F0100949F02009A0F818908BF312
:1005AC001188BFF36F8FBDE8F88F09F00709022996
:1005BC0007D1204604F0FBFB0028F0D00128238B48
:1005CC0050D16769218B002F15DA256821F00701BE
:1005DC00C4E9008841F0010121830026218B01F040
:1005EC00070ACA4502D0A368002B5CD10DB9002EB6
:1005FC0074D0002358E001F007035A1F012A20D8B9
:10060C0021F00701062B256889B2C4E900880CD1BA
:10061C00002D2B4638BF00232BB1628B1B68013297
:10062C006283002BF8D141F002012183204604F0B3
:10063C00BEFB06460028D1D0238B43F02003238336
:10064C00CBE7042B0CD121F0070189B22183204682
:10065C0004F0ADFB05460028BFD041F020012183FA
:10066C000025BAE7032809D1226923F0070316688D
:10067C0043F00603238300252F46AFE7042806D159
:10068C00226923F00703566843F00403F2E70528B8
:10069C0006D1226923F00703966843F00503E9E7C6
:1006AC0000252E46E8E7012341F0080121838BF356
:1006BC001188BFF36F8F03BB002D33D116B12149C5
:1006CC002046B0474FF02003EFF3118B83F31188D2
:1006DC00BFF36F8F238B23F008032383238BDA065E
:1006EC0028D523F0100323830121B4F8189009F0C6
:1006FC00070900297FF45BAF51E7A1680029DBD023
:10070C000B68D1F804B0002B38BF00239946524631
:10071C003B462046D847B9F1000FCDD0D9F8003070
:10072C004946EEE729463B46524620462D6804F0E2
:10073C005AFBC1E713F020011EBF23F020032383D3
:10074C000221D2E71F4E0000F0B50022C0E90022C2
:10075C0082604A78252A034633D001310C4611F8C1
:10076C00012B2B2A3DD02FD8202A3ED0232A40D033
:10077C001A7802F04401442902D16FF386121A70E0
:10078C0022782A2A4CD11A8842F4C072601C1A8032
:10079C0002782E2A4FD142782A2A45D001300546BC
:1007AC0000220A27014611F8014BA4F13006092E4C
:1007BC0053D9A8421FBF59789A6041F00201597071
:1007CC0039E0881CDA70F0BD2D2A05D0302ACFD143
:1007DC001A7842F0400202E01A7842F004021A70D1
:1007EC00BCE71A7842F00802F9E71A7842F01002D6
:1007FC00F5E71A7842F02002F1E707FB0252303A93
:10080C000846014611F8015BA5F13006092EF4D912
:10081C0084421FBF19785A6041F080011970B7E704
:10082C00204600220A27ECE75A7822F0060242F012
:10083C0006025A700230014611F8014B6C2C3CD068
:10084C0010D8682C15D06A2C3FD04C2C42D05A783A
:10085C006FF3C6025A70014614E007FB0242303AAD
:10086C0008469FE7742C5A7832D07A2CEFD10620A8
:10087C001FE04278682A5A781AD1012161F3C60226
:10088C005A70811C084610F8014BDC70782C00F271
:10089C00AC80572C29D8412C03D0453C022C00F2BB
:1008AC00A4809A78042161F302029A70012278E004
:1008BC00022060F3C6025A70E4E742786C2A5A7838
:1008CC0001D10421DAE70320F3E75A780520F0E799
:1008DC000720EEE71A8822F4F04222F0020242F4DA
:1008EC00804242F002021A80CCE7A4F15802202A7E
:1008FC007BD801A151F822F0BF090000F7090000D4
:10090C00F7090000F7090000F7090000F7090000DB
:10091C00F7090000F7090000F7090000AF08000014
:10092C00F7090000BF09000089090000AF080000AA
:10093C00AF080000AF080000F709000089090000AB
:10094C00F7090000F7090000F7090000F70900009B
:10095C00C5090000BF090000DF090000F70900000D
:10096C00F7090000DF090000F7090000BF090000CB
:10097C00F7090000F7090000BF0900009A7801216F
:10098C0061F302029A705A7802F07802402A02BF90
:10099C00197841F001011970632C2AD1003A18BF63
:1009AC0001221978C1F34004224362F3410119700A
:1009BC0009E79A780221E3E79A78032161F30202AE
:1009CC009A705A7802F07802A2F140014A424A41E8
:1009DC00E7E79A78032161F302029A705A7812F0D1
:1009EC00780F14BF01220022DBE71A7842F00102D3
:1009FC001A700022D5E700BF2DE9F04F80468FB06A
:100A0C00894692461C4600259AF8000008B92846EB
:100A1C000BE1252809D04946C0470028C0F20581C2
:100A2C000AF101030293013559E0514605A8FFF77D
:100A3C008BFE9DF815300290D9071AD554F8047B1B
:100A4C00002F06DA9DF8142042F004028DF81420D1
:100A5C007F425A0715D554F804BBBBF1000F14DACA
:100A6C009DF815306FF341038DF815304FF0FF3BB7
:100A7C000BE09DF91420002AB4BF069F4FF0FF37FE
:100A8C00E7E79B07F2D5DDF81CB09DF816309DF812
:100A9C0015C003F007030021012BCDE90611CCF39F
:100AAC00C30C8E4630D1ACF10303042B1AD8DFE80B
:100ABC0003F0033B3B19190054F8041BCB179E465B
:100ACC009DF8143013F0030650D0029B5246494651
:100ADC00404604F048FB0028C0F2A7800544DDF82E
:100AEC0008A091E754F8041BBCF1010F4FEAE17325
:100AFC009E4602D101F0FF0113E0BCF1020FDFD1E1
:100B0C000AB2D3171146DAE7022B22D1ACF1030358
:100B1C00042B12D8DFE803F003080811110054F875
:100B2C00041B4FF0000ECBE7E31D23F007031C461C
:100B3C00D3F804E054F8081BC2E7BCF1010F54F8D9
:100B4C00041B4FF0000ED5D0BCF1020FB8D189B206
:100B5C00E7E7042B05D1073424F00704F4E802235B
:100B6C00D0E7032B08BF54F8041BA9E79DF8170026
:100B7C007828B4D8622821D8252851D05828AED14D
:100B8C000DF136030093084608AB05AA714604F034
:100B9C009FFA8246BBF1000F0DF136010CDB9DF87C
:100BAC001420A1EB0A036FF386129B458DF81420D9
:100BBC0002D9ABEB030306938B4648E06338152848
:100BCC008DD801A252F820F0630C0000C10C00007B
:100BDC00EB0A0000EB0A0000EB0A0000EB0A000035
:100BEC00C10C0000EB0A0000EB0A0000EB0A00004D
:100BFC00EB0A00001B0D0000E90C0000ED0C0000DE
:100C0C00EB0A0000EB0A00003D0C0000EB0A0000B0
:100C1C00E90C0000EB0A0000EB0A0000E90C0000F4
:100C2C004946C0470028BFF6FEAE0FB0BDE8F08FB6
:100C3C0008468A46039104F03EFEBBF1000F03996F
:100C4C0002DB584528BF584601EB000B0026BAF1D1
:100C5C00000F07D143E78DF8201000260DF1210B72
:100C6C000DF1200AABEB0A0306B101339DF81620F7
:100C7C00D00667D502335206069948BF079A0B4433
:100C8C0048BF9B18002F70DD9DF81420FF1AC2F38B
:100C9C0080030393530768D4500640F1A3803EB100
:100CAC0049463046C0470028BFDB039B01351E4632
:100CBC00302398E01E070FD413F0100618BF20261F
:100CCC0000297EF10000BFF65BAF4A426EEB4E038B
:100CDC0011469E462D2653E72B26F1E700264FE7BB
:100CEC0051B30DF136030093084608AB05AA002159
:100CFC0004F0EEF9BDF8163003F0EF0343F4F043C3
:100D0C0043F010038246ADF81630002642E7BCF1E2
:100D1C00070F3FF6E4AEDFE80CF00D04060D0808F3
:100D2C000D0D0D70DBE60D80D9E62A46EB17C1E9F7
:100D3C000023D4E60D60D2E6DFF8C0B00E46ABF16E
:100D4C00050A8FE7110748BF013394E71846494657
:100D5C000393C0470028039BFFF667AF002FA5EB5A
:100D6C00070107F1FF37F1DC0D4636B14946304635
:100D7C00C0470028FFF659AF01359DF81630D9064B
:100D8C0001D41A0706D549463020C0470028FFF683
:100D9C004CAF01359DF81630DB0607D59DF81700D2
:100DAC004946C0470028FFF640AF0135069E2E4449
:100DBC00731B002B19DC5B4652464946404604F037
:100DCC00D2F90028FFF631AF05442F447B1B002BD2
:100DDC007FF785AE49462020C0470028FFF625AF97
:100DEC000135F3E720233D44B8E749463020C0479E
:100DFC000028FFF61AAF0135DAE700BFC962000020
:100E0C0030B51049104889B0002205F002F80F4D9A
:100E1C000F4900220023CDE9062300240E23CDE93F
:100E2C000334CDE901440B4B00944FF44072284637
:100E3C0003F0E0FC0849284604F0A2FF204609B064
:100E4C0030BD00BF690E0000B0000020E80000209B
:100E5C00C008002081120000CA620000014803F0A3
:100E6C004DBC00BFA000002008B500F065FA094891
:100E7C0004F090F9042328220749084804F08FFE57
:100E8C00074B084A1A604FF40040BDE8084000F0D8
:100E9C009BBC00BF7C020020801900208402002033
:100EAC0004000020DF510000F8B50F4BBFF35B8F3F
:100EBC00002553E8007F43E80052002AF9D1BFF324
:100ECC005B8F0A4C0A4E361B3611B54200DBF8BD5F
:100EDC0063685B792BB12368DB6813B13946204614
:100EEC00984701351034F0E774020020746000005C
:100EFC0094600000064BBFF35B8F53E8002F013268
:100F0C0043E800210029F8D1BFF35B8F704700BF85
:100F1C0074020020044A054B9B1AB1EBD30F34BF6B
:100F2C0052F83100002070472C6000007460000003
:100F3C00094B4268C31A1B11013310B51371436876
:100F4C00064C196001225A71227812B9044803F038
:100F5C00D5FB0123237010BD7460000088040020B1
:100F6C00A000002070B5114BBFF35B8F53E8005FFE
:100F7C006A1C43E800210029F8D1BFF35B8F2DB91F
:100F8C000B4C0C4E361B3611B54200DB70BD237B6F
:100F9C0043B123685B6903B19847042200212046C2
:100FAC00FFF7C6FF01351034EEE700BF78020020D2
:100FBC007460000094600000164B984237B50446EC
:100FCC0002D3154B984220D314480022002301A9C8
:100FDC0002F0EAFE0546D8B90122019BBFF35B8FF4
:100FEC0053E8001F43E800200028F9D1BFF35B8FC2
:100FFC00019821461F22043004F04AFC019C7E23F8
:10100C0084F8233084F824500434204603B030BDD7
:10101C00034CFAE7945E00005C6A00008402002036
:10102C00D262000048B1054B984205D3A0339842D8
:10103C002CBF002001207047002070478019002031
:10104C002DE9F04F4C4B1B7885B0044603B960B3C7
:10105C004FF02003EFF3118683F31188BFF36F8FEA
:10106C00464804F0A7F8054686F31188BFF36F8F46
:10107C0078B1BFF35B8F424B53E8002F013A43E842
:10108C0000210029F8D1BFF35B8F94B1284604F0FE
:10109C009FF924B93B4B1B680BB1FFF705FF374891
:1010AC0004F086F8041E18BF0124204605B0BDE8E4
:1010BC00F08F354B1B78CBB92B7ADB0716D404F0A9
:1010CC009AF98046284604F061F90146404604F03E
:1010DC0084F82E4F2E4BDFF8D4B0DB1BDB080393C8
:1010EC002C4BDB1B06464FEAD30A36B92A4E2B4F44
:1010FC00BF1B3F114FF000083AE0B6FA86F1C1F180
:10110C001F094946284604F044F9254B98420146EC
:10111C0002D3244B98421AD30846FFF783FF0246AA
:10112C00A8B9214B994212D06B890399C3F3891347
:10113C008B4238BF57F833204FEA8A1343F0010330
:10114C00ADF8003049464346584604F0A0F801215A
:10115C0001FA09F126EA0106C7E773685B7923B146
:10116C00336829461B683046984708F10108103649
:10117C00B845F2DB8AE700BF880400207C0200201F
:10118C007002002074020020890400202C600000F2
:10119C00746000003C60000074600000946000000B
:1011AC00945E00005C6A0000D2620000EC620000F9
:1011BC00294B73B51B68418104469847274DE06065
:1011CC00BFF35B8F55E8003F013345E80032002A3E
:1011DC00F8D1BFF35B8F4FF02003EFF3118683F34D
:1011EC001188BFF36F8F1E48214603F0D7FF86F39B
:1011FC001188BFF36F8F1B4B1B7883B14FF020030B
:10120C00EFF3118483F31188BFF36F8F0020FFF786
:10121C0017FF84F31188BFF36F8F02B070BD124AB1
:10122C002B681268002AF8D0012B0AD10022002367
:10123C00CDE900230D484FF40042002303F0FCFCE1
:10124C00EBE70A2BE9D1094804F0EFFD084802B09E
:10125C00BDE8704003F052BA040000207002002078
:10126C007C02002089040020A0020020B000002095
:10127C00A000002010B5FFF775FE03F039FA0C4BF7
:10128C00186030B10B4B1B68092B02DD0A4803F0C8
:10129C0035FA094C0020FFF7D3FE0028FAD14FF0A5
:1012AC00FF324FF0FF33204603F048FAF2E700BF5D
:1012BC00A002002070020020A0000020F8B50E4F04
:1012CC003D7875B90D4C0E4EFFF74CFE361B3611A2
:1012DC00B54207DB0020FFF7B3FE0028FAD101234B
:1012EC003B70F8BD63685B791BB1236820461B69B2
:1012FC00984701351034EBE7890400207460000036
:10130C009460000007B504380190BFF35B8F50E880
:10131C00003F5A1E40E800210029F8D1BFF35B8F33
:10132C00012B03D1034801A902F070FD03B05DF855
:10133C0004FB00BF840200202023024902481A4605
:10134C0004F02DBC201A0020A402002037B5002385
:10135C00094D01930120FFF773FE0446FFF7CAFD08
:10136C000022002301A9284602F01EFD08B1002C22
:10137C00F0D1019803B030BDA402002007B50023C2
:10138C00019307480022002301A902F00DFD10B1C2
:10139C00FFF7DCFF0190019803B05DF804FB00BF80
:1013AC00A4020020F0B5037A457A85B02D0901908E
:1013BC00D8071CD4DDB1002426460198314603F031
:1013CC00E8FF0746FFF72EFE70B134B9019B2946A2
:1013DC00186903F002FF044648B124FA06F3D90752
:1013EC0002D53846FFF78EFF0136AE42E5D3019B9E
:1013FC001A7A920704D55B69084C0393039B2BB9AB
:10140C00064801A902F002FD05B0F0BD1D6803A954
:10141C00204602F0FBFC0395F0E700BFA40200207D
:10142C000EB403B503AB014653F8042B04480193E7
:10143C00FFF7E2FA02B05DF804EB03B0704700BFAF
:10144C00035700002DE9F04F85B011F002049046CF
:10145C009DF8387006461A4601F0010901F008059E
:10146C0007D011F0440F37D13249FFF7D9FF0146AD
:10147C000C46B9F1000F0AD02F4B304953F82720F6
:10148C002F4B3046002A08BF1A46FFF7C9FF3DB163
:10149C002C4B2D4953F827203046FFF7C1FF05464A
:1014AC00B8F1000F43D0012303FA07F7274B17F0CD
:1014BC00100F274F18BF1F46BDF840109DF83C0079
:1014CC00FFF728FD394602463046FFF7A9FF2844AE
:1014DC00204405B0BDE8F08F1E4B19680029C7D019
:1014EC001D4B4FF4616E1B68B2FBF3F34FF47A7C27
:1014FC00B3FBF1F4B4FBFEF20EFB124E01FB143401
:10150C000CFB04F44FF03C0AB4FBF1FB01FB1B4455
:10151C000CFB04F4BEFBFAF3B4FBF1F1CDE901B121
:10152C000AFB13E100910D49FFF77AFF9FE7084F83
:10153C00C2E700BF3D630000A860000075680000B2
:10154C002F630000BC600000626300003963000080
:10155C0034630000C0020020C40200204663000077
:10156C0038B50C46E107054603D5084A0849FFF78C
:10157C0057FFE20608D4A30628464CBF0549064986
:10158C00BDE83840FFF74CBF38BD00BF2F630000EB
:10159C007568000069630000686300002DE9F0477E
:1015AC001D46089B1746DA0604460E4605D49906D6
:1015BC004CBF2A492A49FFF733FFDFF8AC904FF0B4
:1015CC000008A8452ADBDFF8A480DFF8A490DFF838
:1015DC0098A00025BD422FD2725D49462046FFF7E8
:1015EC001FFF0135102D20D11E49DFF87C80DFF85C
:1015FC0084902046FFF714FF0025AF4228D9725D76
:10160C00A2F120035F2B28BF2E2249462046FFF76C
:10161C0007FF0135102D14D1BDE8F087494620464F
:10162C00FFF7FEFE08F10108CBE76A07D2D151465D
:10163C002046FFF7F5FECDE741462046FFF7F0FECA
:10164C00CFE76B07D9D141462046FFF7E9FED4E737
:10165C0041462046FFF7E4FEDBE700BF696300006C
:10166C006863000075630000736300007163000021
:10167C006B630000776300002DE9F0478B7A13F061
:10168C00070817468AB00A7A05460E4621D04989C2
:10169C00C3F3C203C1F38911D243CDE90083029194
:1016AC00F36802F001023946FFF7CCFE8146347A2A
:1016BC00E44314F001040ED02946304603F0B1FE89
:1016CC00B8F1000F2BD0424639462846FFF748FFA9
:1016DC0025E0C146EBE7B8F1000F26D12746EB68B1
:1016EC00069306AA3B46A968304603F086FE069A86
:1016FC006B681A603AB1AB68134413F8014CA4F14F
:10170C000A035C425C41284603F0E8FF069B1F4439
:10171C00002BE4D11CB114492846FFF781FE284662
:10172C0003F0DCFF0AB0BDE8F087304603F063FE3F
:10173C000E4902462846FFF773FE4FF0100A05AA21
:10174C00234606A93046CDF814A003F056FE059AA0
:10175C00002AB8D04B46009706A92846FFF71EFF73
:10176C00059B1C44EBE700BF7A6300007568000022
:10177C0073B542F20F738B4228BF0B4605680F4AB4
:10178C0004460521684603F005FB63680C495B6859
:10179C0006460B22284603F037FE6368324669463C
:1017AC0028465B6803F030FE636806495B681B22C1
:1017BC00284603F029FE02B070BD00BF8569000009
:1017CC00B86300009C630000084A10B50123084C64
:1017DC0013600021A04204D801B11360054B1860BE
:1017EC0010BD40085B000121F4E700BFC4020020DB
:1017FC0040420F00C0020020F8B5074F0D460446CA
:10180C004618B44201D12846F8BD386814F8011BBB
:10181C0083685B689847F4E7DC020020014803F01A
:10182C005DBF00BFE86000000148FFF7A1BF00BF2B
:10183C00E860000008B5034802F006F9024B186096
:10184C0008BD00BFC4630000DC02002010B50846D0
:10185C000C4603F08EFD054821460F22FFF70CFFC6
:10186C002046BDE8104003F0B3BD00BFE8600000A7
:10187C00014B01221A7070479B040020024B034855
:10188C0001221A7003F02ABF9C0400201061000092
:10189C000148FFF76DBF00BF1061000010B508468E
:1018AC000C4603F066FD054821460F22FFF7E4FEC7
:1018BC002046BDE8104003F08BBD00BF1061000056
:1018CC00054B1B781BB141F2883004F055BAA420AB
:1018DC00002102F0EDBE00BF9C0400202DE9F84F62
:1018EC00DFF89090DFF890B007460E460424CA4605
:1018FC0099F8003033B94FF0FF324FF0FF335846B0
:10190C0002F0AEFA32463946002000F01FFB9AF87E
:10191C000030804613B9584602F01AFB144DB8F14A
:10192C00000F18D001232B709AF8003033B93046D1
:10193C00BDE8F88F5CB92C704FF0FF34002000F03C
:10194C0051FB0028F3D02B78002BF3D1EFE7013CAF
:10195C00FFF7B6FFF2E72B7813B1013C04D12C70E2
:10196C002B78002BC4D1E2E7FFF7AAFFF8E700BF02
:10197C009B0400209C0400208C00002010B507481C
:10198C00074C02F061F8074B1860204601F018F87C
:10199C002046FEF7CBFD002010BD00BFC463000045
:1019AC00B5190000F40200200A2838B5074D04468A
:1019BC0004D1286883680D215B6898472868836880
:1019CC00E1B25B689847204638BD00BFF4020020A6
:1019DC0070B504460D48231A9A100D4B5343DBB2D5
:1019EC000C255D4305F140030E461844402103F0DD
:1019FC00A6FE011E04DB074B2B445B6898470021B5
:101A0C0020463346BDE87040184700BF080300204D
:101A1C00B76DDBB6346100002DE9F0410F4C104D71
:101A2C00031B9B105D43EBB20C255D43074605F190
:101A3C0040000E462044402103F09AFE011E08DBB4
:101A4C00084B2C44C4E90E36074B5B59BDE8F041FA
:101A5C00184738463346BDE8F041184708030020C4
:101A6C00B76DDBB6DF57000034610000002270B5A3
:101A7C0001210446104600F0F7FA002000F0D6FAD7
:101A8C000F4801F0C7FD0F4B984215D104F042F8F6
:101A9C00E6680D49304603F0D9F900280BDB012527
:101AAC003564E468084904F11C0003F0CFF9002800
:101ABC0001DBE564002070BD6FF00400FBE700BFA4
:101ACC000D1B00000000AD0B4C61000001460C2307
:101ADC0009484B4370B5C418D4E90E560022403364
:101AEC00A263184403F062FE2DB132462B46034824
:101AFC00BDE87040184770BD080300203800002076
:101B0C0010B1012804D07047034B1B6C5B0701D14B
:101B1C00FFF7DCBF704700BF0803002008B54FF08B
:101B2C002003EFF3118183F31188BFF36F8F124AF7
:101B3C00136843F0020013F0010310600CD04FF057
:101B4C008042D2F80C34D2F80C2413F0010303D0E9
:101B5C000A4803F02BFE012381F31188BFF36F8F2A
:101B6C0023B1BDE808400020FFF7B0BFBDE8084036
:101B7C00012001F05FBD00BF580300204803002086
:101B8C0010B5074C23782BB94FF4A57004F0F4F87A
:101B9C0001232370BDE81040002001F04BBD00BFB5
:101BAC009D040020094BBFF35B8F53E8002F22F0FC
:101BBC00020143E800100028F7D1BFF35B8FD30775
:101BCC0002D4012001F082BD704700BF58030020F1
:101BDC001FB500220123CDE90223094ACDF800D01C
:101BEC006B46CDF804D003F017FE002805DB4FF44C
:101BFC0080420023684602F0A1FD05B05DF804FBAD
:101C0C00F15700002DE9F8433A49BFF35B8F0646C4
:101C1C00012251E8003F41E800200028F9D1BFF330
:101C2C005B8F33B9344935484B60CB608A6003F025
:101C3C0020F9731E012B32D8012E07D14FF08043AF
:101C4C00D3F81C3403F00303012B28D004F08EF8D6
:101C5C00044618B92A4B1B78002B44D14FF02003B3
:101C6C00EFF3118583F31188BFF36F8F0124254F98
:101C7C00DFF89480DFF894904FF08042D2F818345B
:101C8C00D2F81824D2030CD503F00303012B01D096
:101C9C00012E06D10CB385F31188BFF36F8FBDE80D
:101CAC00F883ACB1284600F0EFFA4FF08042D2F83E
:101CBC001835002BE0D139680029DDD03B603B683A
:101CCC000123C2F81835C8F88031C9F80030D3E7C1
:101CDC000021212002F0ECFCE7E74FF080430222C8
:101CEC00C3F80423DBE74FF080430222C3F8082338
:101CFC000546BCE75C030020F8020020240300200A
:101D0C00B00800200401004000E100E008000040A1
:101D1C00821C084B22F07F42C3F84025D3F80425DF
:101D2C00904200D17047D3F80405821C22F07F4208
:101D3C00F2E700BF00100140074B00221A601B683D
:101D4C00064A074BD3F840051368C01A20F07F40B1
:101D5C000344136002F0C4BE401101406003002034
:101D6C000010014038B5104D104B0024C5F8084543
:101D7C001C601B680E4B4FF40032C3F880214FF4EB
:101D8C008033C5F8043322460121112000F06CF990
:101D9C00112000F04BF9074A0123136002202B603D
:101DAC00FFF730FF204638BD0010014040110140C4
:101DBC0000E100E008100140F8B52D4BB0F1FF3FF9
:101DCC0008BF18460138002840DD9842A8BF1846C5
:101DDC00284C294AD4F804351268284E9B1A13F45F
:101DEC00000F23F07F4518BF0020013528444FF425
:101DFC0080311F4DC4F80813A84294BF151855190B
:101E0C00D4F80425D4F8403500279B1A376023F00A
:101E1C007F433068012B22F07F40C4F84005C4F8A2
:101E2C00441304D10F2003F0A7FF37603368144B21
:101E3C004FF40032C3F88021D4F804052B1A23F098
:101E4C007F43012B04D1FFF763FF0BE00020BFE7BA
:101E5C0025F07F43C4F84035D4F804052D1A023D13
:101E6C002B02F0D44FF48033C4F80433F8BD00BF18
:101E7C00FFFF7F0000100140600300204011014073
:101E8C0000E100E04FF02002EFF3118382F31188A0
:101E9C00BFF36F8F064AD2F80405064A1268801AFF
:101EAC0020F07F4083F31188BFF36F8F704700BF22
:101EBC0000100140600300204FF02003EFF311826B
:101ECC0083F31188BFF36F8F0649074B0868D3F86B
:101EDC00043582F31188BFF36F8F1B1A23F07F43F5
:101EEC0018447047600300200010014010B5114CDD
:101EFC00114AA2610323C4E90433104BE361226647
:101F0C004FF480630E4A0F4923626266002310224D
:101F1C00E01DA3626362E3622367E3666367A26604
:101F2C0003F0ACFC0849204603F0A8FC2023A37165
:101F3C0010BD00BF640300201C640000AE04002030
:101F4C009E04002025640000296400002DE9F84F50
:101F5C00234F4FF0180B14460BFB00720646936A86
:101F6C00556AAB42884634D8D2F820A0AAEB0509B2
:101F7C0009F1FF32944211D84FF0180906FB09936E
:101F8C003B44224658684146284403F0A7FC09FB11
:101F9C0006762C4474620120BDE8F88F13449C42F1
:101FAC001BD800FB0BBBBB444A46DBF804002C449B
:101FBC00284403F093FCB4EB0A0406D0DBF80400CD
:101FCC00224608EB090103F089FC182000FB067679
:101FDC00E0E7013B5B1BA342CED20020DCE700BF55
:101FEC0064030020034B182202FB00339A6A586AE0
:101FFC00801A704764030020094A0A4993680968EB
:10200C00D967094998674B6843F080534B600023AC
:10201C0083F31188BFF36F8F9368D86F704700BF3D
:10202C00440400200862000000ED00E043B2002BE5
:10203C0008DB012200F01F0002FA00F05B09024AE3
:10204C0042F82300704700BF00E100E0054B420955
:10205C0000F01F0053F82220012303FA00F0104077
:10206C00704700BF00E100E043B2002BA8BF03F1B2
:10207C00604301F10101B8BF064B4FEA4111ACBFFF
:10208C0003F5614300F00F00C9B2B4BF195483F8D3
:10209C000013704714ED00E042F8203C009B42F81E
:1020AC001C3C0A49019B42F8183C029B42F8143C28
:1020BC0021F001014FF0807342F8043C42F8081CF7
:1020CC000023203A82658367704700BF114F0000E0
:1020DC000B4A0346906890B113F1160F806E05D031
:1020EC00A0F120029A4206D8834204D281422CBF2E
:1020FC000021012100E00021002908BF00207047C9
:10210C004404002008B504460E46154600F066FB54
:10211C00084B20469C6000F07DFB284686F309881E
:10212C00002163B681F31188BFF36F8F0022002367
:10213C0002F0E8FE4404002073B506460C4601B3D9
:10214C00134B144D1448ED1AED08AD0145F0010583
:10215C00ADF80050D1E90123096803F098F8ADF807
:10216C000050D4E90423E1680C4803F090F8E169CD
:10217C000B482A4603F05EF8A1690A482A4603F088
:10218C0059F82146304602B0BDE8704001F084BCDD
:10219C002C6000004C600000306400005F640000A4
:1021AC008E6400009D6400000E4A08B50E4B22F0B0
:1021BC007F029A60BFF34F8FBFF36F8FD3F88820E5
:1021CC0022F47002C3F88820EFF3148323F0040385
:1021DC0083F3148801F0FAFC01F002FD00F0D0FA50
:1021EC0001F03CFD0000000000ED00E012498A689F
:1021FC004FF038001044EFF3098C80E8F01F2020DA
:10220C0080F31188BFF36F8F0C4F4FF000668A6A12
:10221C008A603E60906F0023936780F3118804B549
:10222C00104600F0F7FABDE8044002F1380090E8DF
:10223C00F01F8CF3098870474404002004ED00E083
:10224C001EF0040F0CBFEFF30880EFF309808169D7
:10225C0011F8021C0229FFD001B503F004FB01BDEB
:10226C00014910220A60704710ED00E072B6404040
:10227C0080F31188BFF36F8FBFF34F8F30BF62B6FF
:10228C00BFF36F8F704700BF72B6494081F311885E
:10229C0020BF80F3118862B6704700BF30BFFFF7D4
:1022AC00FDBF00BF01B572B60B4A506A00281EBFB5
:1022BC000021516203F071FC62B6EFF30580A0F1CE
:1022CC0010004FEAC0000549014409C99847BDE810
:1022DC00014003490847000044040020F45E00005C
:1022EC003523000003F04BFB202080F311880848B5
:1022FC004FF40261401880F30988EFF31480022137
:10230C00084380F31488BFF36F8FFFF74DFF000075
:10231C0060110020EFF30880EFF3098101B57246DC
:10232C0000F058F901BD00BF044B9968986A8842C7
:10233C0003D003494FF080520A60704744040020D8
:10234C0004ED00E02DE9F047334B344C344DE41AE6
:10235C00E408A40144F0010907468846314849467F
:10236C00164602F05AFFAA6AD00603D52E484946F3
:10237C0002F053FFAB6A190704D52C4844F0010155
:10238C0002F04BFF264DAB6A9A0735D544F0010A93
:10239C002748514602F041FFD5F83490AB6A1B0632
:1023AC000BD524485246494602F044FFB8F1000FC1
:1023BC0003D0AB6A23F08003AB62194DAA6AD00735
:1023CC0004D51D4844F0010102F027FFAB6A9906C1
:1023DC0004D51A4844F0010102F01FFF104B9A6A11
:1023EC00D2060CD400200E4A936A43F0FF0393628A
:1023FC0000233370BDE8F0876FF01509DDE75B68EB
:10240C001B05EFD539464846FFF762FE0028E9D098
:10241C0080F309880220E6E72C6000004C60000085
:10242C0000ED00E0CB640000E164000014650000E6
:10243C00276500003F6500005565000074650000CD
:10244C0070B5234B234C244D2448E41AE408A40112
:10245C0044F00106314602F0E0FEAA6A930103D56E
:10246C001F48314602F0D9FEAB6ADD0104D51D4888
:10247C0044F0010102F0D1FE174DAA6A100304D5F5
:10248C00194844F0010102F0C8FEAB6A590304D5A7
:10249C00164844F0010102F0C0FE0F4DAA6A9203E7
:1024AC0004D5134844F0010102F0B7FEAB6ADB031C
:1024BC0004D5104844F0010102F0AFFE064A936ABD
:1024CC006FEA03436FEA13439362002070BD00BFB1
:1024DC002C6000004C60000000ED00E0A3650000E3
:1024EC00BB650000CE650000E865000006660000D4
:1024FC002B660000456600002DE9F0412A4B2B4C61
:10250C002B4DE41AE408A40144F0010807460E46DA
:10251C002848414602F081FEAA6AD10403D5264818
:10252C00414602F07AFEAB6A1A0504D5234844F002
:10253C00010102F072FE1E4DAB6A9B0512D544F0F0
:10254C0001081F48414602F068FEA96BAB6A1804EB
:10255C0008D51C48424602F06DFE1FB1AB6A23F44D
:10256C000043AB62124DAB6A590504D5164844F0D2
:10257C00010102F052FEAB6ADA050DD5134844F0A6
:10258C00010102F04AFE0A4A936A002043F47F4399
:10259C0093623070BDE8F081AB6A9B04F3D50C48B4
:1025AC0044F00101EDE700BF2C6000004C6000001E
:1025BC0000ED00E070660000866600001465000007
:1025CC0097660000B0660000C5660000E06600007B
:1025DC00746500002DE9F041574B5E688AB00F46D8
:1025EC00C6F30804002585F31188BFF36F8F02F042
:1025FC007F43B3F17F4F0DD102F00C03082B0BD1AD
:10260C004E494F4B4F48C91AC908890141F0010185
:10261C0002F003FE2F4603E0120701D40746012502
:10262C0000238DF80730E31E092B6BD8DFE803F08D
:10263C0005595D3D6A6A6A6A6A61414B3F4E424880
:10264C00F61AF608B60146F00106314602F0E5FD31
:10265C00394BDC6A4FF0000814F002048DF8078047
:10266C0005D03A48314602F0D8FD002420E0DB6A60
:10267C005B001DD53648314602F0CFFD354B1B783B
:10268C0033B10DF1070201213846FFF75BFE0EE076
:10269C00314B1B782BB10DF107010120FFF72CFFFB
:1026AC0005E02E4B1B889BB213B1FFF7C9FE044605
:1026BC009DF8073093B92022394602A803F00EF991
:1026CC00099B9DB3C3F3080222B96FEA53236FEA47
:1026DC004323099302A92046FFF72EFD0AB0BDE85B
:1026EC00F0810DF107020021CEE70DF1070100206A
:1026FC00D4E71249124B1A48C91AC908890141F08A
:10270C000101B0E70E4A0D4B164817499B1ADB081E
:10271C0016F4F87F4FEA831318BF014643F0010308
:10272C001248A4F1100202F099FD9EE723F4FF7306
:10273C0023F00103CDE700BF00ED00E04C6000008A
:10274C002C600000F8660000236700003A67000068
:10275C005B67000028ED00E029ED00E02AED00E0C9
:10276C007A670000C5670000B0670000DE670000F4
:10277C00024A536943F010035361704700ED00E0C7
:10278C00044800232021C2180133272B82F80013A0
:10279C00F9D1704700E100E008B50E4B9B6883420D
:1027AC0007D1EFF3058393B10B4A536843F0805381
:1027BC00536001F0DBFD4FF02003EFF3118083F346
:1027CC001188BFF36F8FBDE8084003F023BA02F005
:1027DC009BF800BF4404002000ED00E01FB5084B3F
:1027EC000193084B0293084B039301AB0093074AE8
:1027FC00074B0121684600F0C3F805B05DF804FBF7
:10280C00000000200000000000000B06000000206B
:10281C00000001201FB5836E203B0193064B202244
:10282C00CDE90223012101AB6846009300F0B2F818
:10283C0005B05DF804FB00BF00000B15DFF8BCC051
:10284C00F8B506460F4610460021B94215DA56F87F
:10285C0021E0DEF80440002C46D0ABB1651E2C42C2
:10286C000CD0224A224B2348D21AD208920142F0B1
:10287C00010202F0DFFC6FF01500F8BD1F2CF0D93F
:10288C00DEF800201542ECD1202CC5B2DEF8002079
:10289C00DEF8080016D9B4F1004F15D8013CB4FA93
:1028AC0084F4C4F11F046400072D44EA00040DD91C
:1028BC000E4A0F4B1048D21AD208920142F0010274
:1028CC002946D6E70824EFE73E24EDE722F01F0265
:1028DC002A4342F0100244F00104CCF80850681C62
:1028EC00CCF80C20CCF810400131AEE7446000006D
:1028FC002C600000F56700001868000090ED00E007
:10290C00034B05225A60BFF34F8FBFF36F8F704795
:10291C0090ED00E0BFF35F8F014B00225A607047CF
:10292C0090ED00E013490868082810B51ED8FFF791
:10293C00F1FF114C49680022904201F10C0105D1C4
:10294C000E4B1870FFF7DCFF002010BDA26051F891
:10295C000C3C23F01F03134343F01003E36051F8C6
:10296C00043C43F0010323610132E5E74FF0FF30F3
:10297C00EBE700BF5861000090ED00E0AE080020CE
:10298C0010B5034C01232278FFF758FF207010BDBF
:10299C00AE08002008B5084A00231278FFF74EFF56
:1029AC0010F1160F03D0054B0022072800DD08BDDF
:1029BC0098601A610130F8E7AE08002090ED00E055
:1029CC00014B1860704700BF080000204FF0200337
:1029DC00EFF3118283F31188BFF36F8F0649012344
:1029EC00C1F840354FF08041C1F8783582F3118839
:1029FC00BFF36F8F0020704700E001404FF0804321
:102A0C00C0B2C3F81C05BFF34F8F0549054BCA680C
:102A1C0002F4E0621343CB60BFF34F8F00BFFDE7BE
:102A2C0000ED00E00400FA0520B1034B800143F0F7
:102A3C0001031847704700BFA060000008B5094BA0
:102A4C001A786AB90121197006200521FFF70CFBD1
:102A5C000620FFF7EBFA044B4FF00042C3F80423B7
:102A6C00002008BDAF080020006000402A4B70B564
:102A7C0046682A48134083423ED00DD8062B15D009
:102A8C0005D89BB1022B39D06FF0150033E0B3F5AC
:102A9C00801FF9D1012309E02148834230D0B3F5DE
:102AAC00A00F2FD0B3F5800FEED10223D00654BF68
:102ABC00C2F34015032582F4807412F4007FC2F334
:102ACC004020C4F3002407D012F4006F76681BD0AA
:102ADC0001228A40C6F8082540EA440201F01F0191
:102AEC0042EA032301F5E0714FF0A04243EA85036B
:102AFC0042F82130002070BD0723D7E70423D5E727
:102B0C000523D3E70323D1E7520542BF01228A40B4
:102B1C00C6F80C25E0E700BF0600F0000600100028
:102B2C0002004000F8B50C464168C668087A04F00B
:102B3C001F05B2F5A03F45EA40150CD105F01F0169
:102B4C0001F5E0714FF0A04050F82110CF0707D5E8
:102B5C006FF02200BDE0B2F5005FF16800F0AA80D2
:102B6C00F0680121A14001437069F1600121A1408D
:102B7C00B2F5A03FB2690CBF08438843B3F5C02F30
:102B8C000CBF0A438A43B26132697061B3F5802F7E
:102B9C000CBF114322EA0101544A3161D2F80413EB
:102BAC000023C9B203F5A27052F82000C0F3042030
:102BBC00854240F0848021FA03F0C0077FD50121C3
:102BCC0099404B48BFF35B8FCF4350E800CF0CEAE2
:102BDC00070C40E800CEBEF1000FF6D1BFF35B8FBF
:102BEC009B0003F1804303F5C043D3F8100520F09C
:102BFC000100C3F81005C2F808130021284602F0A2
:102C0C00C0FEF368E34013F0010351D07369E34055
:102C1C0013F001025ED0B369E340DB075FBF31699B
:102C2C0021FA04F404F00104C4F10204304954BF45
:102C3C00E4B203240022012707FA02F6BFF35B8FEC
:102C4C0051E8000F40EA060341E8003CBCF1000FDC
:102C5C00F6D1BFF35B8FD04010F0010334D191005B
:102C6C0001F1804101F5C0414032D1F8100520F44A
:102C7C00473020F440709200C1F810052D0292B23A
:102C8C00D1F8100505F4F85502F1804202F5C04266
:102C9C0045EA04450543C1F8105513601268D1F894
:102CAC00102542F00102C1F81025104AC2F8046345
:102CBC0018460EE00120A04021EA000154E7013340
:102CCC00082B7FF46FAF98E70132082AB4D16FF06C
:102CDC001200F8BD3169E14001F00101C1F10301BD
:102CEC002846C9B202F04DFE1046F2E700600040E3
:102CFC00280400202DE9F0413F4D2E68002E4ED0C7
:102D0C003E4BD3E90510DA681B69014322EA010244
:102D1C004FF0A0410127D1F810455C4022EA040491
:102D2C004FF0000872BB2A602B6835480023012540
:102D3C001F46D0F8042305FA03F1114211D09A0072
:102D4C0002F1804202F5C242116851B103F5A27141
:102D5C0050F821101760C1F3042105FA01F1126833
:102D6C000C430133082BE4D1DCB94EB1234CD4E92C
:102D7C000510E268014322EA01020125002642BB4C
:102D8C00BDE8F0813A4206D0002108F01F0002F0A5
:102D9C00F8FD22EA070208F101087F00C2E7344679
:102DAC00C3E7164B59680029DFD00D68154F002D6D
:102DBC0038BF00258A68224002D04B6838469847B5
:102DCC00002DD2D02B68002B38BF002329461D467E
:102DDC00F0E715420CD02169F14001F00101C1F17D
:102DEC000301C9B206F01F0002F0CBFD22EA050276
:102DFC0001366D00C3E700BF7C6100400C0400206D
:102E0C00006000406800002002480021C2E9000177
:102E1C00002070470024F40010B5044640680023DD
:102E2C001A4600F1080100F0FFFC094B98420DD046
:102E3C00084B094A09482168D21AD208920142F07B
:102E4C00010202F0F7F96FF00F0010BD0020FCE753
:102E5C000000AD0B2C6000005C60000058680000A6
:102E6C002DE9F0479DF8204046680F461546C1688D
:102E7C009846002C40F08480F21D12F8013FFF2B85
:102E8C0003D023F080039F427DD00134E4B2042CA4
:102E9C00F3D15D4A5D4B5E48D21AD208920142F0E2
:102EAC000102394646E000207DE00133042B40F05E
:102EBC0088802A460023B2F5004F5FFA83FE2BD29E
:102ECC0081F80EE0D6F800E00D608A81CEF80C3562
:102EDC00CEF804C5CEF808258A7B45452B4628BF7D
:102EEC00434623FA02F20AF4004A42EA0A0292B278
:102EFC00A9F80420C2F30E021AB1B1F80CC0944523
:102F0C001BD8321907F01F0792F90820C3B14545A9
:102F1C0072D8002A16DB6FE00133082B4FEA5202FD
:102F2C00C9D1394A394B3B48D21AD208920142F0E6
:102F3C000102294602F07EF958E0A0B9002057E0C2
:102F4C00454557D8012303FA07F74FF0A043C3F8C0
:102F5C000C75204602F075FD0028EFD10146304675
:102F6C0002F005FEEAE7304600F01CFD0028FAD01E
:102F7C000223012206F11801304600F0D5FCDDE7F2
:102F8C006FF0220034E001EB4409B9F804A0CAF355
:102F9C000E0313B18A899A4285D8204602F051FD5E
:102FAC0080F00100C0B296F80EC00B68BCF1010FA6
:102FBC0004BF6D084FEA5808AB428DD0002301F1D5
:102FCC00040EDAB2A2423FF470AF3EF81320C2F303
:102FDC000E02002A3FF469AF0B490C4B0E48C91A7C
:102FEC00C908890141F0010102F017F96FF01500D1
:102FFC00BDE8F087002AA5DA012303FA07F74FF0A2
:10300C00A043C3F80875A4E75C6000002C600000C6
:10301C00B76800008D6800007868000070B54B79C7
:10302C00012B23D18B79032B20D1CA7922B1012A10
:10303C001CD143681B79CBB10C7914B1022C15D17E
:10304C000E240B684568B3F5164F2D6862D02BD84B
:10305C00B3F5165F61D014D8B3F5966F5FD008D86E
:10306C00B3F5967F5ED0B3F5167F5ED06FF022007D
:10307C004FE0B3F5166F5BD0B3F5965FF6D1374BD7
:10308C003CE0B3F5E14F56D007D8B3F5615F54D0AF
:10309C00B3F5964FEAD1324B30E047F61226B342E5
:1030AC00E4D14FF4000329E0B3F5613F47D013D8C6
:1030BC00B3F5963F46D009D84DF6C026B34243D05F
:1030CC00B3F5614FD2D14FF46B0317E0B3F5E13F89
:1030DC00CCD14FF0EB7311E0B3F5612F37D008D89A
:1030EC00204EB34236D0B3F5E12FBFD14FF0E86399
:1030FC0004E01D4EB342B9D14FF08053C5F82435CE
:10310C00C36803C922430433C5F86C2583E8030064
:10311C00002070BD4FF41D03F0E7144BEEE74FF4A5
:10312C009E23EBE74FF4A033E8E74FF41C33E5E7BD
:10313C004FF41D23E2E70E4BE0E70E4BDEE74FF0BA
:10314C006C73DBE70C4BD9E74FF46503D6E74FF014
:10315C007063D3E74FF08063D0E700BF00B013007B
:10316C0000A04E0090D0030040420F0000502700FA
:10317C0000C0750000F03A0000903A012DE9F041D2
:10318C00C7680646884602F0F1FDB8B9284B1B7893
:10319C0083F001037268156893B14FF02003EFF3CD
:1031AC00118483F31188BFF36F8F304602F08DFCCE
:1031BC0038BB84F31188BFF36F8FEEE70123E9E787
:1031CC006424304602F081FC70B9012002F0A0FCAE
:1031DC00013CF6D10021212001F06AFAF0E784F3DA
:1031EC001188BFF36F8FF5E74FF02003EFF31184D5
:1031FC0083F31188BFF36F8F304602F066FC002812
:10320C00EDD007F80C8F01230022C5F84475C5F8E2
:10321C004835C5F82021D5F82011C5F85821D5F826
:10322C005821AB6084F31188BFF36F8FBDE8F08138
:10323C00B0080020F8B50022054601210220FEF757
:10324C0013FF0220FEF7F2FE6B68EE681C684FF06D
:10325C00A04300224021C4F8002506203560C3F8A5
:10326C0008150321C3F81817C3F82027C4F80C0558
:10327C000820C4F81405C3F81C272022C3F808251D
:10328C00C3F81417E9680523C4F808350723C4F8F4
:10329C00103504312846FFF7C1FE0746A8B96B6804
:1032AC009B793BB306F10E0000F08AFA224B984250
:1032BC000DD0224B22492348C91AC908890141F073
:1032CC00010101F0AAFF6FF004073846F8BDB07B8E
:1032DC00C30003F1804303F5F83304F10C0204F549
:1032EC009071C3F81015C3F81425174A01238340B5
:1032FC00C2F804350823C4F800350023C4F8103193
:10330C00D4F8103106F10D03C4F834350123C4F898
:10331C00383523606B689B791BB94FF48073C4F804
:10332C00043300230C36C4F84465C4F84835012333
:10333C00A360E360C9E700BF0000AD0B2C60000088
:10334C006C600000F268000000F0014008B5FDF769
:10335C00B5FF064B06490748C91AC908890141F04F
:10336C00010101F05AFF0020FFF748FB2C60000020
:10337C003460000021690000044B1868421C04BF33
:10338C00034B1878831F5842584170473001001086
:10339C00E00F00F0074B1B78062B09D1064B1B687E
:1033AC00C3F30313033B032B02D8044AD05C7047CE
:1033BC0000207047E00F00F0E80F00F046690000B5
:1033CC00024AD2F80034002BFBD0704700E00140D9
:1033DC0010B5FFF7D1FF28B1774B784A1B68C3F3C0
:1033EC0004231360FFF7D6FF10B1754B754A1A60B2
:1033FC00FFF7C2FF28B1744B744A1B68C3F3423306
:10340C001360FFF7C7FF20B1714AD36823F08073B4
:10341C00D360FFF7B1FF40B14FF080430022C3F8F7
:10342C000C21C3F81021C3F83825FFF7B3FF10B1F6
:10343C00684B03221A60FFF7ADFF40B1664B0522C3
:10344C001A6001229A6700229A603F225A60634BED
:10345C001A68511C0BBF624B624B1A781B6802BF77
:10346C0008331B68C3F30313062A4DD1033B032B0C
:10347C0003D85D4AD35C002B46D04FF080525B4B97
:10348C00D2F80414C3F82015D2F80814C3F8241584
:10349C00D2F80C14C3F82815D2F81014C3F82C1554
:1034AC00D2F81414C3F83015D2F81814C3F8341524
:1034BC00D2F81C14C3F84015D2F82014C3F84415E4
:1034CC00D2F82414C3F84815D2F82814C3F84C15B4
:1034DC00D2F82C14C3F85015D2F83014C3F8541584
:1034EC00D2F83414C3F86015D2F83814C3F8641544
:1034FC00D2F83C14C3F86815D2F84014C3F86C1514
:10350C00D2F84424C3F87025FFF736FF28B1384BA6
:10351C00384A1B6803F04F031360FFF72DFF48B1C7
:10352C004FF08043D3F80024D20744BF6FF0010260
:10353C00C3F80024294B1B68062B0CD1294B1B68A4
:10354C00033B032B02D82C4AD35C23B12B4A1368C0
:10355C0043F4806313604FF01023D3F80022002A49
:10356C0003DBD3F80432002B22DA25490123C1F8FE
:10357C000435FFF725FF4FF010201524C0F800424A
:10358C00FFF71EFFC0F80442FFF71AFF0023C1F833
:10359C000435FFF715FFBFF34F8F1A491A4BCA6852
:1035AC0002F4E0621343CB60BFF34F8F00BFFDE723
:1035BC00164B174A1A6010BD240300104035014009
:1035CC0074C007400DF0ADBA440200103C05004039
:1035DC00F0ED00E0A0050040105600403001001056
:1035EC00E00F00F0340100103E69000000C0004004
:1035FC0058020010E40E0040426900003C170040E5
:10360C0000E0014000ED00E00400FA052C00002071
:10361C000090D003044B1A7922B9012218609A80C9
:10362C0002487047024870472C0400200000AD0B84
:10363C000C00AD0B30B510B1012833D030BD4FF0BC
:10364C008043D3F81824D3F8181411F4803F19468A
:10365C0024D002F00302012A20D1C3F81825164BFE
:10366C0000221A601B684FF080430222C3F8042327
:10367C00124AD06840F08073D360114B1C6844F040
:10368C00010119605D685968491BB1F50A5FFAD3ED
:10369C001C600C4BD06001221A60CFE70023C1F8EC
:1036AC001835DCE7084B00221A601B684FF080438A
:1036BC00C3F804031860C1E704010040F0ED00E01A
:1036CC00001000E0080000400001004038B510B1C7
:1036DC00012818D038BD4FF080430222C3F80823CC
:1036EC00184A10601268184A0121116042F21075D4
:1036FC001C46D4F81834DB03ECD5012002F008FA90
:10370C00013DF6D1E6E7114B4FF080440022C4F89E
:10371C0008031A601B680E4B42F210751860D4F83F
:10372C000C34D4F80C24D20303F0010305D523B1D7
:10373C00012002F0EDF9013DF1D1064B00225A7146
:10374C00C8E700BF040100400C000040000100402D
:10375C00040000402C040020164B1A6810B56AB106
:10376C0000221A601B684FF080430122C3F8082323
:10377C00114B587910B95A711B6898470F4B1A683E
:10378C0072B100221A601B684FF08043D3F81824E2
:10379C00D3F81814920704D10122C3F818259A60A3
:1037AC0010BD0222C3F80823034BBDE810401B6870
:1037BC0001201847000100402C04002004010040A7
:1037CC002DE9F041144A154E154F054615480024B5
:1037DC004FF0010E5FFA84FC4FF02003EFF31188D9
:1037EC0083F31188BFF36F8F0EFA0CF3134207D0DB
:1037FC0031680B4201BF1943316085F800C038466F
:10380C0088F31188BFF36F8FB84203D09A4304F149
:10381C000104DFD1BDE8F081FFFF0F00340400206C
:10382C000000AD0B0200AD0B2DE9F04F05793B4CC0
:10383C000C266E43A71985B097F808C0BCF1000F91
:10384C006AD1A2517B6001F1FF3C6B4601F1030987
:10385C004FF0010A4FF0A04E4FF0030B1CF8017F04
:10386C00FF2F55D027F080061E600E7B6EB907F037
:10387C001F060AFA06F806F5E0763F064CBFCEF8AE
:10388C000885CEF80C854EF826B0CC4503F1040320
:10389C00E4D10068009BC0F86035019BC0F864352A
:1038AC00029BC0F86835039BC0F86C350123C0F847
:1038BC0000358E790B894F79C0F80C75C0F804650A
:1038CC00C0F808354B89C0F810350023C0F8003219
:1038DC00C0F80033C0F81C31D0F81C11C0F81031FE
:1038EC00D0F81011C0F81431D0F81411C0F804310C
:1038FC00D0F804311AB140F30730FEF797FB0C23D4
:10390C0003FB054406480123237205B0BDE8F08F84
:10391C004FF0FF361E60B8E70248F6E73804002087
:10392C000000AD0B0500AD0BF0B40D46017900683D
:10393C00D5F800C0AF88AE68C0F820C51C46184B3F
:10394C00C0F8247501EB410103EB8101EB68C0F871
:10395C002865C0F82C35C0F840C5C0F84475C0F8CF
:10396C004865C0F84C3502F0010303EB5202C0F875
:10397C001425E20711D414F0020203D0002B14BF5B
:10398C0008220422002BC0F8002218BF0C23E2B23C
:10399C0008BF0823F0BC02F0C7B81022F2E700BF42
:1039AC0038040020084B02790C2101FB023201681B
:1039BC00137AD1F80411DBB219B9981E18BF012083
:1039CC00704701201072704738040020F8B5104B76
:1039DC00104F53F82050013053F82060AE4200D8FD
:1039EC00F8BDD5E900342046984770B16CB1E41BA2
:1039FC0024116109084A04F01F0452F82100012324
:103A0C0003FA04F4044342F821400835E6E700BF0A
:103A1C00F46100003800002088000020084BC01A18
:103A2C000011084B420900F01F0053F8222001231B
:103A3C0003FA00F010420CBF18460020704700BF7C
:103A4C003800002088000020114970B5114C054643
:103A5C000E468C4204D10F4CB4420AD1002414E01F
:103A6C002046FFF7DBFF10B12368AB420DD01034BA
:103A7C00EFE72046FFF7D2FF08B91034ECE72168D6
:103A8C00284601F01FFF0028F7D1204670BD00BF6B
:103A9C0088000020380000202DE9F34106460F462F
:103AAC004FF02003EFF3118883F31188BFF36F8F6E
:103ABC0000F01EFE1F4C204BE41A042E4FEAD404D7
:103ACC0096BF1E4A1E4A52F82620A40144F0010358
:103ADC000546ADF800301B480023314601F0D7FBFA
:103AEC0047B1FB69C3F3080323B1174844F0010144
:103AFC0001F093FB44F001042DB1284602F043F988
:103B0C0008B1037803B91148FDF756FA234602466B
:103B1C0029460F4801F0A2FB39463046FFF716FC48
:103B2C0088F31188BFF36F8F284602B0BDE8F041CF
:103B3C00FEF732BE4C6000002C6000000C620000EE
:103B4C004A6900006069000088690000586900003B
:103B5C00A9690000F8B51C4E054600274FF020025D
:103B6C00EFF3118382F31188BFF36F8F286988B14B
:103B7C002F6183F31188BFF36F8F00F0F7FB4FF0C9
:103B8C002003EFF3118083F31188BFF36F8F02F0E2
:103B9C0041F8E3E783F31188BFF36F8F4FF02002F6
:103BAC00EFF3118382F31188BFF36F8F02F003F9E7
:103BBC00012102280446D8BF084602F00CF97462B1
:103BCC00FEF754FBCAE700BF440400200248034A36
:103BDC000021121A01F0ADBEB0000020B408002084
:103BEC0008B50648064A0749121A01F077FEBDE8E7
:103BFC000840054A0549064801F070BE0000002047
:103C0C00B00000205C6A0000000000005C6A00004C
:103C1C000000002008B50C4B012202201A70FFF79F
:103C2C00D5FE0A4A0A490B4801F0A7F80320FFF712
:103C3C00CDFE00F00BFEFCF713FC074A137B23F0C0
:103C4C000103137308BD00BFB00800206A630000B5
:103C5C000B6A00002A6A0000E80100202DE9804868
:103C6C00A7B0FDF701F9DFF8F49089F30888334D1C
:103C7C00334E6B69DFF8E8A0324F43F40073002435
:103C8C006B61E02385F82230EC772C766C76AC7681
:103C9C006B6A43F4E0236B62FEF76AFDFEF7E0FA11
:103CAC004FF0FF33AB62EB62274D40F20113ADF8DE
:103CBC00243006ABAB602046CDE92044FFF786FEEE
:103CCC000120FFF783FE4FF0010B00F097FC1F4B18
:103CDC00AE621F4905934FF480625346CDE9034B06
:103CEC00CDE901440094304600F052FD737B8046D0
:103CFC0023F004033046737301F0B8FF0F23CDE9B2
:103D0C0002431449144B4FF4A072CDE904B4CDE92D
:103D1C000054384600F03CFD7B7BEF6023F004033D
:103D2C007B7305F11C03C5E907332C76C5F80490A9
:103D3C00524641463046FEF7E5F900BF00ED00E083
:103D4C00E80100206801002044040020516A0000B2
:103D5C00E00B002000100020613B000080190020C7
:103D6C00213C000070B50E4B0E4CA34201D3002039
:103D7C0070BDD3E9030141EA000212F003020BD13A
:103D8C009D685A61AA4201D11C33EEE75E690E6050
:103D9C00013259610144F5E76FF01500E8E700BF07
:103DAC008C0000208C000020D3B50C4616461F4614
:103DBC004FF02003EFF3118183F31188BFF36F8F62
:103DCC0043695BB123601B68436183690133836181
:103DDC00002081F31188BFF36F8F11E056EA0702C0
:103DEC0003D123606FF00B00F3E70246CDE90067C7
:103DFC00044800F07DFB18B9034B9B685B6923609A
:103E0C0002B0D0BDB10800204404002070B50446B7
:103E1C000D464FF02003EFF3118683F31188BFF3A7
:103E2C006F8F01F07EFF58B12A6842610021C16793
:103E3C0001F01CFF31460948BDE8704000F010B994
:103E4C002B6862691A602B686361A369013BA361EB
:103E5C0086F31188BFF36F8F70BD00BFB1080020CF
:103E6C002DE9F341044616461F464FF02003EFF3AD
:103E7C00118883F31188BFF36F8FC368324A6BB11B
:103E8C0080689168884219D056EA070318D188F3E4
:103E9C001188BFF36F8F6FF00F000CE0916891F9F0
:103EAC000E1021610133E3609368A36088F31188DD
:103EBC00BFF36F8F002002B0BDE8F0812169F0E7FD
:103ECC0090F90E3091F90E109942A8BF194621EACB
:103EDC00E1718B422CDD00F04DFB0546CDE900670E
:103EEC001A482246414600F003FB0028E3D04FF06D
:103EFC002003EFF3118683F31188BFF36F8F2368D0
:103F0C002169A34207D033B193F90E309942A8BF6F
:103F1C00194621EAE171A06890F90E30994209D155
:103F2C006DB10A48314600F09BF86FF00A00C2E709
:103F3C000025D3E700F01EFB0028F2D1F0E786F352
:103F4C001188BFF36F8FF0E744040020B108002004
:103F5C0038B583680446002B36D01E4A92689342CB
:103F6C0035D1DA7B013ADA73C368012B05D0013BFA
:103F7C00C36000F0D9F8002038BD4FF02003EFF3F8
:103F8C00118583F31188BFF36F8F0169806890F9F5
:103F9C000E30994201D000F0EDFA204601F0C1FE3E
:103FAC00A06058B190F90E2022610022C26701F086
:103FBC005DFE0948294600F053F8DAE7E06085F326
:103FCC001188BFF36F8FD4E76FF01500D4E74FF073
:103FDC00FF30D1E744040020B108002010B5084C94
:103FEC0023685BB1FDF74EFF03462068054A034486
:103FFC00BDE810405361002101F0EDBE10BD00BFC3
:10400C008004002044040020F8B505460C464FF00F
:10401C002003EFF3118683F31188BFF36F8F0D4BE1
:10402C0000224FF4004740F2E73000215A61E7FBD1
:10403C0005014FF47A720023FCF74AF8064B18601E
:10404C00064B1C60FFF7CAFF86F31188BFF36F8F16
:10405C00F8BD00BF44040020800400207C04002034
:10406C0049B9EFF3058030B9054B9A6A9B689A42BF
:10407C0001D0FDF7C1BF81F31188BFF36F8F70477B
:10408C00440400204FF02003EFF3118183F31188D7
:10409C00BFF36F8F044B9A68D37B013BD37381F3CF
:1040AC001188BFF36F8F704744040020094B03F154
:1040BC002C02824205D19B688B4202D14B7BDB06E2
:1040CC0006D1D1E9003213605A600023C1E90033F4
:1040DC00704700BF4404002038B5124C2369A26815
:1040EC0001460BB1E5680CE004F12C0001F0B4FDC5
:1040FC00537B0546980644BF43F008035373002DC9
:10410C00F0D049B9537BDB0606D1AB6923B9D3890F
:10411C007F2B01D9A26238BD954201D0FFF75EFF1B
:10412C00A562F8E74404002010B54FF02003EFF32C
:10413C00118483F31188BFF36F8F084B9A68D37B7C
:10414C000133D3730020FFF7C7FF84F31188BFF34B
:10415C006F8FBDE8104001F069BD00BF4404002022
:10416C0070B490F90D20437B002A2CDBDB062AD19E
:10417C00836943BB154A114651F82C4F8C4218BF2A
:10418C002346002B146B38BF0023B3B190F90E609B
:10419C0093F90E50AE4203DBA3420ED01B68F4E73A
:1041AC005A68C0E9003210605860437B63F07F03AB
:1041BC00437370BC0020FFF78FBFC0E90014136B72
:1041CC0018601063F1E770BC704700BF4404002016
:1041DC0010B54FF02002EFF3118482F31188BFF376
:1041EC006F8F427B510704D484F31188BFF36F8F18
:1041FC0010BD22F004024273FFF7B2FF21460248C1
:10420C00BDE81040FFF72CBFB108002070B590F945
:10421C000D30002B014602DA1748FFF747FF174A0B
:10422C001046146B50F82C3F834208BF0023002B20
:10423C0038BF0023D3B191F90E6093F90E50AE4202
:10424C0003DBA34212D01B68F4E75868C1E90030C5
:10425C00016059604B7B906863F07F034B73431A8A
:10426C005842BDE870405841FFF736BFC1E9000421
:10427C00136B19601163EDE77004002044040020F7
:10428C0070B501464FF02003EFF3118483F31188CE
:10429C00BFF36F8F164B174A98681568A8421D46D6
:1042AC0006D1FFF79BFE84F31188BFF36F8F70BDAF
:1042BC0000261660104A1268BAB1C2897F2A14D837
:1042CC00427BD20611D10D4A90F90E6012689642CB
:1042DC000BDB0B4A904208D05A698A4202DCFFF78A
:1042EC0095FFDEE7521A5A61DDE700236B61DAE7CE
:1042FC004404002078040020800400207C0400206A
:10430C006801002070B50446183001F03EFD4FF0F6
:10431C002003EFF3118683F31188BFF36F8F94F9A9
:10432C000D30002B07DA0F482146FFF7BFFE637BE9
:10433C0003F07F0363730C4D637BA86843F0100399
:10434C006373031B58425841FFF7C6FE86F311886E
:10435C00BFF36F8FAB68A34203D1BDE8704001F08F
:10436C0065BC70BD70040020440400202DE9F041B0
:10437C0004464FF02003EFF3118283F31188BFF34F
:10438C006F8F437B13F0280F05D082F31188BFF396
:10439C006F8FBDE8F08143F02003437382F31188E3
:1043AC00BFF36F8F183001F0F0FC4FF02003EFF3E8
:1043BC00118683F31188BFF36F8F637BD80616D1F8
:1043CC00A269A2B9190607D526482146FFF76EFE49
:1043DC00637B03F07F036373234B9868021B50428B
:1043EC005041FFF779FE04F1300800271DE09B07D0
:1043FC00F9D5A0682146FFF759FE637B23F0020331
:10440C0063730023A360EEE705F1180001F0BDFC17
:10441C00A8682946FFF74AFE6B7BAF6023F00203C6
:10442C006B73EF672846FFF79BFE256B454501D064
:10443C00002DE9D10C4B9A680C4B9A4202D1012009
:10444C00FFF74AFE637B43F008036373236E86F326
:10445C001188BFF36F8F002B9BD02046BDE8F04135
:10446C00184700BF7004002044040020680100209D
:10447C0008B590F90D30002B014606DA0748FFF716
:10448C0015FE4B7B03F07F034B73054B9868431A67
:10449C0058425841BDE80840FFF71EBE700400208A
:1044AC00440400202DE9F041064614461D464FF009
:1044BC002003EFF3118783F31188BFF36F8F01F0A3
:1044CC0005FC87F31188BFF36F8F6B1C08BFB4F129
:1044DC00FF3F08D022462B4606F118000349BDE8E1
:1044EC00F04100F075BABDE8F08100BF995C0000A6
:1044FC0010B5074B9868074B0C4618601146DDE960
:10450C000223FFF7CFFF2046BDE81040FDF774BD36
:10451C004404002078040020F8B5054601F075FC31
:10452C002C184FF02003EFF3118783F31188BFF39E
:10453C006F8F0D4E0D4BB0681860FFF799FFB06888
:10454C000B492A46EB17183000F042FAB268537B3D
:10455C0043F0100353733846FDF74EFD01F055FC44
:10456C00201A20EAE070F8BD4404002078040020F2
:10457C00995C00002DE9F04104464FF02003EFF365
:10458C00118883F31188BFF36F8F437BDB064EB228
:10459C002ED1856965BB184F214607F12C00FFF71A
:1045AC0085FDFB6A3A6BA673834218BF1D46002D2E
:1045BC0038BF0025B5B195F90E10B14203DCAA4203
:1045CC0010D02D68F6E76A68C4E9005214606C607C
:1045DC000120FFF781FD012088F31188BFF36F8F55
:1045EC00BDE8F081C4E900023B6B1C603C63EFE763
:1045FC00A6730020F0E700BF44040020044B002108
:10460C0003F12C02C3E90B220846FFF7FDBC00BFE7
:10461C0044040020F8B5244C244BA2689A4230D0B4
:10462C004FF02003EFF3118583F31188BFF36F8FE5
:10463C00A16804F12C00FFF739FDE36AA268216B35
:10464C00834208BF0023002B38BF00232BB392F901
:10465C000E7093F90E60B74203DB8B421DD01B68C2
:10466C00F4E75968C2E900310A605A60537B63F081
:10467C007F0353730120FFF72FFD85F31188BFF3E0
:10468C006F8F4FF02003EFF3118083F31188BFF38A
:10469C006F8FBDE8F840FDF7AFBCC2E90001236B9A
:1046AC001A602263E2E700BF440400206801002086
:1046BC000B46013308BFB0F1FF3F10B506D10B4BD1
:1046CC009868FFF71FFE4FF0FF3010BD044648B945
:1046DC00FFF7A0FF4FF47A7084FB0034D80B40EA4C
:1046EC004440F2E7FFF718FF0446F3E744040020C8
:1046FC00014B9868704700BF4404002038B504464D
:10470C004FF02003EFF3118583F31188BFF36F8F04
:10471C0001F007FB48B10022C26701F0A7FA294655
:10472C000548BDE83840FFF79BBCD4E902329A42F9
:10473C0018BF0133A360F2E7B108002037B5144667
:10474C001D464FF02003EFF3118183F31188BFF363
:10475C006F8F836843B1013B836081F31188BFF392
:10476C006F8F002003B030BD54EA050306D181F3EE
:10477C001188BFF36F8F6FF00F00F3E70246CDE99E
:10478C0000450248FFF7B4FEECE700BFB10800207B
:10479C002DE9FF4100F13005C0E90C550E9D057364
:1047AC00042545730F460D9D8573D61D00250C9A67
:1047BC00C57326F007062037C0E90655C0E91A76FE
:1047CC00056706F1200802920B9A019288440A9A16
:1047DC00009242460446FDF75FFC054B9B68C4E91A
:1047EC00175503B15B6F6367404604B0BDE8F081B9
:1047FC0044040020F0B587B000250595109D049564
:10480C000F9D03950E9D0295DDE912670D9D019597
:10481C000C9D00950446FFF7BBFF7B1C08BFB6F14F
:10482C00FF3F05D056EA070305D12046FFF7D0FC21
:10483C00204607B0F0BD044932463B4604F118004F
:10484C0000F0C6F8F4E700BF995C00002DE9F047D2
:10485C002A4E2B4D86B0B046B54205F1300410D32C
:10486C00FFF710FC264CDFF89CA04FF4004940F2F7
:10487C00E7360027444521D306B0BDE8F047FFF7E3
:10488C0053BC54F8043C059354F8103C049354F86E
:10489C00143C039354F8183C029354F81C3C0193B9
:1048AC0054F8203C009354E90A2354E90C01FFF717
:1048BC006FFF54F8303CDD652546CDE7636A5A1C22
:1048CC000DD023EAE37330463946C9FB0301B942E4
:1048DC0008BFB042256804D12846FFF779FC303474
:1048EC00C8E74FF47A720023FBF7F2FB02460B4643
:1048FC0005F11800514600F06BF8F0E78C00002031
:10490C008C000020995C000008B54FF02003EFF3F9
:10491C00118483F31188BFF36F8F044B986818616F
:10492C00FFF7F0FC2046FDF767FB00BF44040020B6
:10493C00034B1B680BB9FDF7A5BA0020704700BFED
:10494C008404002030B5036868B10A4A526890426A
:10495C0009D043B1D3E90421D0E90445121945EB40
:10496C000101C3E90421426813605A600023C0E9C5
:10497C00003330BD3000002038B5134B1C689C420E
:10498C0008BF0024FFF7D4FF0546BCB1D4E90401ED
:10499C00401B61EBE571012871F1000311DB6FF035
:1049AC0000420023824273EB010400DA1046074BED
:1049BC005B6913B19842A8BF184638BD6FF0004030
:1049CC00F5E70020F3E700BF30000020440400208E
:1049DC002DE9F74F019119464B1C08BFB2F1FF3F6F
:1049EC0082466CD0541C6FF0010341F100054FF06E
:1049FC00FF3BB3EB04086BEB0509B8F1000F79F141
:104A0C0000030FDBFFF794FF334AD2E9001C6FF071
:104A1C0001035B1A6BEB0C021E1B62EB0507341ACD
:104A2C0067EBE075019BCAF808304FF02003EFF3F9
:104A3C00118683F31188BFF36F8FFFF779FF012C79
:104A4C0075F10003254BB8BF01241A68B8BF0025C7
:104A5C00241845EBE0759A42CAE9044501D05F6819
:104A6C0052B95A68CAF804205A68CAF80030C2F819
:104A7C0000A0C3F804A014E0D2E90489DAE90445E3
:104A8C00444575EB09011DDAB8EB040069EB05012F
:104A9C00C2E904015168CAE90021C1F800A0C2F8BA
:104AAC0004A01A689A4206D0924504D1FFF764FF1D
:104ABC000021FDF781F986F31188BFF36F8F03B0E6
:104ACC00BDE8F08FB4EB080065EB0901BA42CAE906
:104ADC000401C6D01268C3E7680200203000002031
:104AEC002DE9F74F0646FFF7CBFB4FF02003EFF312
:104AFC00118483F31188BFF36F8F2C4DDFF8B0A0B6
:104B0C00DFF8B0B02E605146D5F800C0DBF80000DD
:104B1C006246D3175845DAE90089CDE900230DD058
:104B2C0060B1D0E90467B445BB411EDA009BB6EB1B
:104B3C00030C019B67EB0306C0E904C6009B13EB57
:104B4C000802019B4FF0000643EB0903C1E9002367
:104B5C002E60FFF711FF3146FDF72EF984F3118813
:104B6C00BFF36F8F03B0BDE8F08F18EB06084FF062
:104B7C0000024FF0000349EBE679C0E90423ACEBEB
:104B8C000606CAE900892E60FFF7DCFE84F3118863
:104B9C00BFF36F8F836898474FF02003EFF31184B6
:104BAC0083F31188BFF36F8F0149ADE784040020B4
:104BBC00680200203000002010B54FF02003EFF306
:104BCC00118483F31188BFF36F8FFDF75BF9064BEC
:104BDC00D3E90023121843F1000384F31188BFF3C7
:104BEC006F8F1046194610BD68020020F8B5D0E949
:104BFC000A23561C43F10007002F08BF022E04465F
:104C0C0002D30C49FFF7E4FE236B01332363236AC1
:104C1C000BB12046984754F8185FA54208D03DB117
:104C2C00284600F0E7FF284601F020F80023EB6748
:104C3C00F8BD00BFF94B00002DE9734F194606462D
:104C4C004C1C104608BFB0F1FF3FDDE90A2380463B
:104C5C00894647D014461D4654EA050316D06FF01A
:104C6C000103B3EB020A4FF0FF3363EB050BBAF110
:104C7C00000F7BF1000309DA12F1FF3445F1FF3527
:104C8C00012C75F10003BCBF012400256FF001035A
:104C9C001B1A00934FF0FF3363EB01030193DDE923
:104CAC000023002A73F100030CDA10F1FF3841F1F4
:104CBC00FF39B8F1000F79F10003BCBF4FF00008C9
:104CCC004FF00009304601F060F8002307493363C8
:104CDC0042464B463046C6E90A4502B0BDE8704F25
:104CEC00FFF776BE02B0BDE8708F00BFF94B000035
:104CFC0038B5064C064DAC4201D3002038BDD4E982
:104D0C000112204601F0B3F81434F4E78C000020B3
:104D1C008C000020034658B1426802F00302012ABD
:104D2C0003D0032A04D1026812B1002098607047A6
:104D3C006FF0150070474268816002F00302032A8D
:104D4C004FF0000203460CBF006810465A607047D3
:104D5C000020704730B58A680C68551C14B14B683C
:104D6C00934201DC8D6030BD013B934208BF0022B1
:104D7C008D600CBFE254A054F5E70FB407B504A93D
:104D8C0051F8040B0191FBF7D7FB03B05DF804EB72
:104D9C0004B070470CB407B504AB53F8042B019363
:104DAC00FBF7D8FB03B05DF804EB02B07047038B44
:104DBC0013F0070305D10368002B0CBF0020032060
:104DCC007047022B05D1438B002B14BF002004200D
:104DDC007047012B05D10368002B0CBF0020052068
:104DEC007047002070472DE9F0410D4607461946E3
:104DFC00281D90461E46FFF79EFF044638B13346E9
:104E0C00424629463846A446BDE8F0416047BDE815
:104E1C00F08110B44FF02004EFF3118284F3118869
:104E2C00BFF36F8F416110BC0121FBF7A7BB10B51D
:104E3C000C4640B139B1081DFFF76CFF28B9A368C7
:104E4C0033F0030301D06FF0150010BD38B50C46DC
:104E5C00054658B151B10B6843B14B6833B11C22B4
:104E6C00002100F066FD2C61002038BD6FF01500AC
:104E7C00FBE770B504460E46FFF7D9FF051E31DB84
:104E8C004FF02003EFF3118183F31188BFF36F8F81
:104E9C00638B208B4FF6FF75AB4200F007022ED0D0
:104EAC00022A0ED1013363831546012381F3118845
:104EBC00BFF36F8FB3B1002331462046FFF793FF4A
:104ECC0010E0830701D0062A0ED1002333606368FB
:104EDC0093B9C4E90066154662B90A462046022118
:104EEC00FBF74CFB284670BD052A0CBF6FF0220562
:104EFC006FF004050023D9E71E606660EBE76FF0E6
:104F0C000A05F7E7044608B5084611461A46A047B5
:104F1C00FFF7EEFBFDF740FC836800EBC101B3F536
:104F2C00004F2CBF51F8220031F81200704700EBF3
:104F3C00C1018068B0F5004F2CBF41F8223021F838
:104F4C001230704708B50122FFF7E6FF400808BD94
:104F5C008368B3F5004F00EBC10108D34B681AB15D
:104F6C0043F001034B60704723F00103FAE74B88D1
:104F7C001AB143F001034B80704723F00103FAE7A9
:104F8C0053000122FFF7D3BF80680131B0F5004F09
:104F9C002CBF02200120081AB0FA80F0C0F11F00CB
:104FAC0070472DE9F04104460D46FFF7CBFFA3688F
:104FBC00B3F5004F014601D3012835D02046FFF749
:104FCC00E3FF04EB800216699EB9012303FA00F09B
:104FDC00E3680343E360294615612B460222204611
:104FEC00FFF7A5FF032229462046BDE8F041FFF755
:104FFC009EBF022231462046FFF78EFF0222034657
:10500C00074629462046FFF792FF334603222946DE
:10501C002046FFF78CFF032239462B462046FFF72C
:10502C0086FF02223146DFE7BDE8F081B2F5802F22
:10503C00F8B52CBF08250425551BCC1D0D4424F0B8
:10504C00070425F00705002200232D1B0460ED0842
:10505C00C4E9002300232946A560E3602046FFF73E
:10506C0093FF86001B36411CF60804F1100218460B
:10507C008B4229DB324620460021FFF781FFAF1B14
:10508C00204601220021FFF763FF3A463146FFF725
:10509C0077FF3346314620460022FFF748FF29466A
:1050AC0020460022FFF76CFF3B4629462046002293
:1050BC00FFF73DFF294620460122FFF749FF314605
:1050CC00BDE8F840FFF76DBF42F8040B0133CFE7A2
:1050DC002DE9F74F9946D37814466F2BA3F1410273
:1050EC0006460F4601922DD028D8582B14BF0A25FE
:1050FC001025DDF83080AA464FF0000B52465B4677
:10510C0030463946FAF7E4FF092AD3B21FD83033B8
:10511C005F45DBB208BF564508F8013D01D3C845D1
:10512C0012D823789B0605D5082D16D1A37843F009
:10513C000803A370404603B0BDE8F08F03F0F703FB
:10514C00702BD3E70825D4E706460F46D6E7019A1D
:10515C00192A94BF37335733DAE7102DEAD1A378E5
:10516C0043F01003E5E72DE9F04107468846154664
:10517C001E461446B442A4EB050002D33EB9237874
:10518C002BB114F8010B4146B8470028F2DABDE800
:10519C00F08170470023C0E900337047036823B9DE
:1051AC000160002341600B60704743681960F8E7A9
:1051BC00006870470346006808B102681A607047BF
:1051CC0008B5FCF7DBF818B1012343600023038119
:1051DC0008BDFCF771BE00207047F0B505460020F5
:1051EC0003460246012715F8014B0CB18B4200D344
:1051FC00F0BD252C02D182F00102F4E7002AF2D096
:10520C0044F02006613E192EEDD8732C04BF07FA2A
:10521C0003F2104301330022E5E738B505460C468E
:10522C00FFF7CEFF28B105612146BDE83840FBF7FA
:10523C00BFBF38BD70B506460D461446FFF7C0FF1C
:10524C0058B1427A0661012161F30712427245613D
:10525C002146BDE87040FBF7ABBF70BD2DE9F041B6
:10526C0080460F4616461D46FFF7AAFF68B1437AE3
:10527C00C0F81080022262F307134372C0E905766E
:10528C002946BDE8F041FBF793BFBDE8F0812DE95D
:10529C00F8438046BDF820900F4616461D46FFF792
:1052AC008FFF70B1437AC0F81080032262F30713AA
:1052BC004372C0E90576C5614946BDE8F843FBF782
:1052CC0077BFBDE8F8832DE9F8431C4603899DF8A8
:1052DC0020700E461146C3F38D02A24203D8002360
:1052EC000B60BDE8F8830B682344934284BF131B07
:1052FC000B600C2AD1F800902AD9072CD0F8148016
:10530C002DD8183008224A4528BF4A461546204455
:10531C0017B3314600F0E2FAA9EB05092E44B9F1B6
:10532C00000FDED0B8F1000FDBD0C4F11C054D45E9
:10533C0028BF4D46201D40442A46BFB1314600F0DF
:10534C00CDFAA9EB0509D8F800802E440024E6E735
:10535C0014304FF00008D6E701463046DAE7083C37
:10536C001B2CDCD9D8F800801C3CF9E701463046F0
:10537C00E5E70430BFF35B8F50E8003F013340E8B2
:10538C000032002AF8D1BFF35B8F7047407A0009D6
:10539C007047437AB1EB131F4FEA131216D2032A4C
:1053AC0003D800EB810148697047012903D800EB51
:1053BC0081018869704743690239062903D803EBD8
:1053CC008101486870471B680739F6E70020704771
:1053DC000346021DBFF35B8F52E8001F013942E800
:1053EC00001CBCF1000FF7D1BFF35B8F5B680BB9EE
:1053FC00FBF7D8BF70470069704713B500240094C1
:10540C00FFF761FF02B010BDF8B506460D46144615
:10541C001F46214628463A46B047241A0544F8D17F
:10542C00F8BD2DE9F0478EB00EAF80460D46FFF764
:10543C00E2FF06464046FFF7A9FF8300073323F03F
:10544C000703ADEB030D82460EAC4FF00009D145BE
:10545C0016D14046FFF79AFF0F281ED8DFE810F050
:10546C001900200026002D00360041004E005D0082
:10547C006E0081009600AD00C600E100FE001D012B
:10548C0049464046FFF785FF44F8290009F1010918
:10549C00DDE731462846FBF7C3FFBD46BDE8F08784
:1054AC00226831462846FBF7BBFFF6E7D4E9002318
:1054BC0031462846FBF7B4FFEFE7A3680093D4E925
:1054CC00002331462846FBF7ABFFE6E7E368019380
:1054DC00A3680093D4E9002331462846FBF7A0FFCC
:1054EC00DBE723690293E3680193A3680093D4E993
:1054FC00002331462846FBF793FFCEE763690393FD
:10550C0023690293E3680193A3680093D4E9002311
:10551C0031462846FBF784FFBFE7A3690493636910
:10552C00039323690293E3680193A3680093D4E97E
:10553C00002331462846FBF773FFAEE7E36905937A
:10554C00A36904936369039323690293E36801934A
:10555C00A3680093D4E9002331462846FBF760FF8B
:10556C009BE7236A0693E3690593A3690493636934
:10557C00039323690293E3680193A3680093D4E92E
:10558C00002331462846FBF74BFF86E7636A0793F7
:10559C00236A0693E3690593A369049363690393F0
:1055AC0023690293E3680193A3680093D4E9002371
:1055BC0031462846FBF734FF6FE7A36A0893636A0A
:1055CC000793236A0693E3690593A36904936369BC
:1055DC00039323690293E3680193A3680093D4E9CE
:1055EC00002331462846FBF71BFF56E7E36A099375
:1055FC00A36A0893636A0793236A0693E369059386
:10560C00A36904936369039323690293E368019389
:10561C00A3680093D4E9002331462846FBF700FF2A
:10562C003BE7236B0A93E36A0993A36A0893636AC3
:10563C000793236A0693E3690593A369049363694B
:10564C00039323690293E3680193A3680093D4E95D
:10565C00002331462846FBF7E3FE1EE7636B0B93F2
:10566C00236B0A93E36A0993A36A0893636A07930B
:10567C00236A0693E3690593A3690493636903930F
:10568C0023690293E3680193A3680093D4E9002390
:10569C0031462846FBF7C4FEFFE6A36B0C93636B05
:1056AC000B93236B0A93E36A0993A36A0893636AC7
:1056BC000793236A0693E3690593A36904936369CB
:1056CC00039323690293E3680193A3680093D4E9DD
:1056DC00002331462846FBF7A3FEDEE642688168CC
:1056EC0010B50446D2E900230068FFF78DFE63680D
:1056FC0000221A6010BD38B54B681A68CB689A4204
:10570C0005460C4602D10846FFF7E8FF6368BFF375
:10571C005B8F53E8002F511C43E800100028F8D190
:10572C00BFF35B8FA3689D54002038BDC268CBB219
:10573C000C2103FB0121086C00F0070070474FF0AF
:10574C002003EFF3118283F31188BFF36F8F03688B
:10575C0013F0C00301D08B4207D10123036000205A
:10576C0082F31188BFF36F8F70474FF0FF30F7E76C
:10577C0010B54FF02003EFF3118283F31188BFF3C0
:10578C006F8F036803F00704012C06D10160002021
:10579C0082F31188BFF36F8F10BD03F0C0038B42EF
:1057AC0014BF4FF0FF306FF04400F1E74FF02003CF
:1057BC00EFF3118283F31188BFF36F8F036803F04B
:1057CC00C00343F00203036082F31188BFF36F8FB1
:1057DC007047C06810B4CBB21C2403FB040000213A
:1057EC0010BC10471046FEF789BF0020FDF76EBFB6
:1057FC0038B5C9B20C244C430546C06804F14003CB
:10580C0080211844FFF79BFF002804DB69680C44D7
:10581C0063689847002038BD2DE9F041C9B20C24CB
:10582C00C5684C43064604F140008021284490464C
:10583C001F46FFF79DFF002806DB2544C5E90E87B0
:10584C0073681B5998470020BDE8F081704770477A
:10585C00FCF74CBB08B5FFF7FBFF002008BD00218F
:10586C000120FCF769BC01460068FCF765BC08B573
:10587C00FCF714FDBDE80840FCF756BD01390346A2
:10588C0011F8012F0AB91A70704703F8012BF7E7CA
:10589C0070B5013905462C4642B111F8013F561E30
:1058AC002BB92A4404F8013BA242FBD170BD05F888
:1058BC00013B3246EFE7034600201A5C02B9704701
:1058CC000130FAE7431E013913F8012F11F8010FCB
:1058DC00824201D1002AF7D1101A7047F0B581EA43
:1058EC000004A50703460BD0013B0A4491421BD18F
:1058FC00F0BD002AFCD011F8014B03F8014B013A22
:10590C009C07F6D122F003041D1F96080F19B9420B
:10591C0005D16FF0030505FB06222344E4E751F89B
:10592C0004CB45F804CFF2E711F8014B03F8014F13
:10593C00DCE770B5C9B203469C0711D141EA0124DA
:10594C0022F0030644EA04451E449408B3420DD1E8
:10595C006FF0030505FB04221A44934209D170BD74
:10596C00002AFCD003F8011B013AE5E743F8045B7D
:10597C00ECE703F8011BF0E74FF0FF307047FDF741
:10598C0027BD00F01F00800000F1A040D0F80037C8
:10599C0023F4403343EA0143C0F8003770474368AF
:1059AC005B68D3F810350B600020704743685B6868
:1059BC00D3F8040542400A404240C3F804250020B5
:1059CC00704743685B680020C3F80815704743684C
:1059DC005B680020C3F80C15704743685A68D2F80E
:1059EC0004354B40C2F8043500207047C368586832
:1059FC0030B558B10024814213D108685CB99C6859
:105A0C005860A14200D198600020086072B9002053
:105A1C0030BD2846EFE720609868814208BF9C6043
:105A2C00F2E705680446002DF3D13AB15A680A60D2
:105A3C00986859600028EAD19960E9E76FF0150081
:105A4C00E6E730B500230C1DDAB2824207D034F8F9
:105A5C001320C2F30E0212B18D89954204D8013382
:105A6C00042BF1D1002030BD0120FCE743681B68FA
:105A7C00D3F80423D20518D5D3F82021AAB14FF0BE
:105A8C002001EFF3118281F31188BFF36F8FD3F8EC
:105A9C00201131B10021C3F82011D3F820110121BC
:105AAC00D96082F31188BFF36F8F7047C2680B46C1
:105ABC00D2E9010183E803000020704743681B68AA
:105ACC00D3F88004C3F88004704742681368D3F895
